:020000040800F2
:10000000780A0020CD010008A10300089903000828
:100010009D0300087D020008F30A000800000000AC
:1000200000000000000000000000000001090008BE
:100030008102000800000000E1060008150A00081F
:10004000E7010008E7010008E7010008E7010008F0
:10005000E7010008E7010008E7010008E7010008E0
:10006000E7010008E7010008E7010008E7010008D0
:10007000E7010008E7010008E7010008E7010008C0
:10008000E7010008E7010008E7010008E7010008B0
:10009000E7010008E7010008E7010008E7010008A0
:1000A000E7010008E7010008E7010008E701000890
:1000B000E7010008E7010008E7010008E701000880
:1000C000E7010008E7010008E7010008E701000870
:1000D000E7010008790A0008E7010008E7010008C5
:1000E000E7010008E7010008E7010008E701000850
:1000F000E7010008E7010008E7010008E701000840
:10010000E7010008E7010008E7010008E70100082F
:10011000E7010008E7010008E7010008E70100081F
:10012000E7010008E7010008E7010008E70100080F
:1001300000F002F800F03AF80AA090E8000C8244BF
:100140008344AAF10107DA4501D100F02FF8AFF29C
:10015000090EBAE80F0013F0010F18BFFB1A43F0A5
:1001600001031847900A0000B00A0000103A24BFAB
:1001700078C878C1FAD8520724BF30C830C144BF0C
:1001800004680C607047000000230024002500264E
:10019000103A28BF78C1FBD8520728BF30C148BFEA
:1001A0000B6070471FB51FBD10B510BD00F033F8D0
:1001B0001146FFF7F7FF00F0E9FC00F051F803B437
:1001C000FFF7F2FF03BC00F096FC000009488047EF
:1001D00009480047FEE7FEE7FEE7FEE7FEE7FEE729
:1001E000FEE7FEE7FEE7FEE704480549054A064B41
:1001F00070470000190A0008310100087804002047
:10020000780A0020780600207806002070477047A2
:10021000704770477047754600F02CF8AE460500F1
:100220006946534620F00700854618B020B5FFF711
:10023000DBFFBDE820404FF000064FF000074FF015
:1002400000084FF0000B21F00701AC46ACE8C009F4
:10025000ACE8C009ACE8C009ACE8C0098D467047FD
:1002600010B50446AFF300802046BDE81040FFF70C
:10027000A6BF0000004870471804002000BFFEE73A
:1002800070472DE9F041024600250026002000239A
:100290000024002791F803C00CF00F0591F803C06B
:1002A0000CF0100CBCF1000F03D091F802C04CEA26
:1002B000050591F800C0BCF1000F31D01468002092
:1002C0002BE04FF0010C0CFA00F3B1F800C00CEA7F
:1002D00003069E4220D183004FF00F0C0CFA03F767
:1002E000BC4305FA03FC4CEA040491F803C0BCF1DA
:1002F000280F06D14FF0010C0CFA00FCC2F814C014
:100300000AE091F803C0BCF1480F05D14FF0010C91
:100310000CFA00FCC2F810C0401C0828D1D31460AD
:10032000B1F800C0BCF1FF0F34DD546800202EE0AE
:1003300000F1080C4FF0010808FA0CF3B1F800C006
:100340000CEA03069E4221D183004FF00F0C0CFAF9
:1003500003F7BC4305FA03FC4CEA040491F803C01C
:10036000BCF1280F05D100F1080C08FA0CF8C2F80E
:10037000148091F803C0BCF1480F07D100F1080CBC
:100380004FF0010808FA0CF8C2F81080401C082849
:10039000CED35460BDE8F08100BFFEE700BFFEE7AA
:1003A0007047000000200CE0002106E00022064B10
:1003B00003EBC0135A544A1CD1B27F29F6DB421C0E
:1003C000D0B20728F0DB70471800002030B50024B9
:1003D00019E004F1B001C8B2002100F051F9002188
:1003E000084600F04DF90021102000F049F90025E1
:1003F00005E00121002000F043F9681CC5B2802D02
:10040000F7DB601CC4B2082CE3DB30BD2DE9F04FF4
:100410000746884692469B46DDF82490AAEB0706DD
:10042000ABEB0805002E62DB002D2FDBAE4216DBA6
:10043000304606EBD071A5EB61040DE009F0FF0238
:1004400008F0FF01F8B200F0B7F8002C02DD08F167
:100450000108A41B7F1C2C445745EFDDAAE0284669
:1004600005EBD071A6EB61040DE009F0FF0208F086
:10047000FF01F8B200F0A0F8002C01DD7F1C641B26
:1004800008F101083444D845EFDD93E06D42AE42F7
:1004900016DB304606EBD071A5EB61040DE009F0E8
:1004A000FF0208F0FF01F8B200F086F8002C02DD30
:1004B000A8F10108A41B7F1C2C445745EFDD79E00F
:1004C000284605EBD071A6EB61040DE009F0FF02B0
:1004D00008F0FF01F8B200F06FF8002C01DD7F1C7E
:1004E000641BA8F101083444D845EFDA62E0764293
:1004F000002D2FDBAE4216DB304606EBD071A5EBAC
:1005000061040DE009F0FF0208F0FF01F8B200F00D
:1005100053F8002C02DD08F10108A41B7F1E2C44B7
:100520005745EFDA46E0284605EBD071A6EB6104AB
:100530000DE009F0FF0208F0FF01F8B200F03CF80E
:10054000002C01DD7F1E641B08F101083444D845EE
:10055000EFDD2FE06D42AE4216DB304606EBD07188
:10056000A5EB61040DE009F0FF0208F0FF01F8B20D
:1005700000F022F8002C02DDA8F10108A41B7F1E68
:100580002C445745EFDA15E0284605EBD071A6EB71
:1005900061040DE009F0FF0208F0FF01F8B200F07D
:1005A0000BF8002C01DD7F1E641BA8F10108344408
:1005B000D845EFDABDE8F08FF0B5144600267F2865
:1005C00001DC3F2900DDF0BD0B46CF1701EB57776B
:1005D000C7F3C702CF1701EB5777FF10A1EBC7078F
:1005E000FDB20123AB40DEB24CB10A4B03EBC213A8
:1005F0001B5C3343074F07EBC2173B5408E0054B26
:1006000003EBC2131B5CB343024F07EBC2173B540F
:1006100000BFD8E71800002030B5002412E02146C2
:10062000002000F015F8002508E0084901EBC4118E
:10063000485D012100F024F8681CC5B27F2DF4DB71
:10064000601CC4B2072CEADB30BD0000180000209B
:1006500030B504460D4605F1B001C8B2002100F0E6
:100660000FF8102141EA1410002100F009F804F0FD
:100670000F0141F00100002100F002F830BD000040
:1006800010B50A461AB10123144C236002E000237E
:10069000124C23600023114C241D2360002116E01E
:1006A00000230E4C0C3C236000F080031BB101239F
:1006B000241D236003E00023084C083C2360012331
:1006C000064C0C3C23604306180E4B1CD9B208297B
:1006D000E6DB0123014C241D236010BDB8812142BB
:1006E0007047000029B1064A92690243044B9A619F
:1006F00004E0034A92698243014B9A61704700000B
:100700000010024008B501210820FFF7EBFF4FF46D
:100710000060ADF8000010208DF8030003208DF874
:10072000020069467348FFF7ACFD0120724908607A
:1007300001210820FFF7D6FF4FF48050ADF80000EC
:1007400010208DF8030003208DF8020069466948E7
:10075000FFF797FD01206949C1F8B0010121082088
:10076000FFF7C0FF4FF48040ADF8000010208DF877
:10077000030003208DF8020069465E48FFF781FD03
:1007800001205D490C31086001210820FFF7AAFF14
:100790004FF40040ADF8000010208DF80300032056
:1007A0008DF8020069465348FFF76BFD012053495D
:1007B000C1F8BC0101210820FFF794FF4FF400505D
:1007C000ADF8000010208DF8030003208DF8020022
:1007D00069464848FFF755FD012047490831086040
:1007E000642000F0ADF900204449C1F8B401642050
:1007F00000F0A6F901204049083108600021AE2030
:10080000FFF73EFF00210846FFF73AFF00211020C6
:10081000FFF736FF00214020FFF732FF0021812043
:10082000FFF72EFF0021CF20FFF72AFF0021A12094
:10083000FFF726FF0021C820FFF722FF0021A62096
:10084000FFF71EFF0021A820FFF71AFF00213F201D
:10085000FFF716FF0021D320FFF712FF0021084603
:10086000FFF70EFF0021D520FFF70AFF00218020AF
:10087000FFF706FF0021D920FFF702FF0021F1203A
:10088000FFF7FEFE0021DA20FFF7FAFE002112201A
:10089000FFF7F6FE0021DB20FFF7F2FE00214020EB
:1008A000FFF7EEFE00212020FFF7EAFE00210220E4
:1008B000FFF7E6FE00218D20FFF7E2FE0021142065
:1008C000FFF7DEFE0021A420FFF7DAFE0021A620BC
:1008D000FFF7D6FE0021AF20FFF7D2FE0021AF20A8
:1008E000FFF7CEFEFFF772FD00210846FFF7B0FECE
:1008F00008BD0000000C0140AC8121420080214273
:10090000704710B500F002F810BD00000CB50020D3
:10091000019000903348006840F48030314908600D
:1009200000BF3048006800F4003000900198401C7F
:100930000190009818B90198B0F5A06FF1D129483D
:10094000006800F4003010B10120009001E00020A8
:1009500000900098012843D12348006840F010001F
:10096000214908600846006820F003000860084636
:10097000006840F0020008601A4840681949486061
:100980000846406848600846406840F48060486017
:100990000846406820F47C1048600846406840F4EF
:1009A000E81048600846006840F08070086000BFAA
:1009B0000C48006800F000700028F9D00948406831
:1009C00020F00300074948600846406840F00200F4
:1009D000486000BF0348406800F00C000828F9D1C7
:1009E0000CBD00000010024000200240042808D185
:1009F0004FF0E021096941F004014FF0E02211615C
:100A000007E04FF0E021096921F004014FF0E022F6
:100A1000116170477047000010B51348006840F03E
:100A200001001149086008464068104908400E4915
:100A30004860084600680E4908400B4908600846AF
:100A4000006820F4802008600846406820F4FE001A
:100A500048604FF41F008860FFF753FF4FF00060BD
:100A60000449086010BD0000001002400000FFF8BB
:100A7000FFFFF6FE08ED00E010B540F225510448F6
:100A800000F008F818B1024800F02EF8C4B210BD0A
:100A90000038014070B502460024002300250020E4
:100AA00040F66A16B14200D100BFC1F3421501F011
:100AB0001F03012606FA03F3012D02D19689334064
:100AC00006E0022D02D1168A334001E0968A3340B7
:100AD0000C12012606FA04F41688344013B10CB146
:100AE000012000E0002070BD01468888C0F30800A6
:100AF000704700BFFEE700BF7047000010B56FF001
:100B00000400FFF773FF0A4800680A49B0FBF1F0E0
:100B1000094908700846007800EB4001C1EBC0109D
:100B20004FF6FF7101EAC0000449088010BD0000C3
:100B30000400002000127A000000002002000020C3
:100B40000146114A12884A434FF0E0235A610022BD
:100B50009A611A46126942F001021A6100BF4FF011
:100B6000E022106900F001021AB100F48032002A7C
:100B7000F5D04FF0E022126922F001024FF0E0239D
:100B80001A6100229A6170470200002008B5002413
:100B9000FFF7B4FFFFF7B6FD2AE0012004F12002C1
:100BA0000090204606230021FFF730FC012004F1CD
:100BB0002C02009004F1200017230621FFF726FCE9
:100BC000012004F11702009004F12C0038231721B2
:100BD000FFF71CFC01202246009004F117000023BF
:100BE0003821FFF713FC641CFFF716FDFFF7DAFB53
:100BF000D3E70000140C00080000002018000000DB
:100C00006C0100082C0C000818000020600A00008D
:100C1000880100080000000000A24A040000000053
:0C0C2000000000000102030406070809A0
:04000005080001CD21
:00000001FF
