:020000040800F2
:100000009017002015020008ED030008E503000822
:10001000E9030008C5020008BB0A00080000000050
:10002000000000000000000000000000C9080008F7
:10003000C90200080000000019070008DD090008D7
:100040002F0200082F0200082F0200082F020008CC
:100050002F0200082F0200082F0200082F020008BC
:100060002F0200082F0200082F0200082F020008AC
:100070002F0200082F0200082F0200082F0200089C
:100080002F0200082F0200082F0200082F0200088C
:100090002F0200082F0200082F0200082F0200087C
:1000A0002F0200082F0200082F0200082F0200086C
:1000B0002F0200082F0200082F0200082F0200085C
:1000C0002F0200082F0200082F0200082F0200084C
:1000D0002F020008410A00082F0200082F02000822
:1000E0002F0200082F0200082F0200082F0200082C
:1000F0002F0200082F0200082F0200082F0200081C
:100100002F0200082F0200082F0200082F0200080B
:100110002F0200082F0200082F0200082F020008FB
:100120002F0200082F0200082F0200082F020008EB
:1001300000F002F800F05EF80AA090E8000C82449B
:100140008344AAF10107DA4501D100F053F8AFF278
:10015000090EBAE80F0013F0010F18BFFB1A43F0A5
:1001600001031847340A0000540A000010F8013B4C
:100170000A4413F0030408BF10F8014B1D1108BF17
:1001800010F8015B641E05D010F8016B641E01F8C5
:10019000016BF9D1002D15D010F8014B03F00C03C1
:1001A0000C2BA1EB04040ABF10F8013BA4EB831451
:1001B000A4EB032405F1010314F8016B5B1E01F8A5
:1001C000016BF9D5914238BF10F8013BD1D370478C
:1001D0000023002400250026103A28BF78C1FBD850
:1001E000520728BF30C148BF0B6070471FB51FBD05
:1001F00010B510BD00F033F81146FFF7F7FF00F01F
:10020000A9FC00F051F803B4FFF7F2FF03BC00F0C3
:1002100056FC00000948804709480047FEE7FEE712
:10022000FEE7FEE7FEE7FEE7FEE7FEE7FEE7FEE7A6
:1002300004480549054A064B70470000E1090008DB
:100240003101000890110020901700209013002029
:10025000901300207047704770477047704775468D
:1002600000F02CF8AE4605006946534620F0070022
:10027000854618B020B5FFF7DBFFBDE820404FF002
:1002800000064FF000074FF000084FF0000B21F080
:100290000701AC46ACE8C009ACE8C009ACE8C0094D
:1002A000ACE8C0098D46704710B50446AFF3008036
:1002B0002046BDE81040FFF7A6BF00000048704789
:1002C0002C11002000BFFEE770472DE9F0410246E7
:1002D00000250026002000230024002791F803C0F9
:1002E0000CF00F0591F803C00CF0100CBCF1000FDE
:1002F00003D091F802C04CEA050591F800C0BCF1AA
:10030000000F31D0146800202BE04FF0010C0CFAE4
:1003100000F3B1F800C00CEA03069E4220D183002E
:100320004FF00F0C0CFA03F7BC4305FA03FC4CEA40
:10033000040491F803C0BCF1280F06D14FF0010C62
:100340000CFA00FCC2F814C00AE091F803C0BCF13A
:10035000480F05D14FF0010C0CFA00FCC2F810C098
:10036000401C0828D1D31460B1F800C0BCF1FF0FC5
:1003700034DD546800202EE000F1080C4FF0010835
:1003800008FA0CF3B1F800C00CEA03069E4221D132
:1003900083004FF00F0C0CFA03F7BC4305FA03FC83
:1003A0004CEA040491F803C0BCF1280F05D100F118
:1003B000080C08FA0CF8C2F8148091F803C0BCF1DC
:1003C000480F07D100F1080C4FF0010808FA0CF8AB
:1003D000C2F81080401C0828CED35460BDE8F081DC
:1003E0000161704700BFFEE700BFFEE770470000F5
:1003F00000200CE0002106E00022064B03EBC013B6
:100400005A544A1CD1B27F29F6DB421CD0B20728CD
:10041000F0DB70472C0D002070B5054605B1FF25B7
:10042000002419E004F1B001C8B2002100F05CF929
:100430000021084600F058F90021102000F054F97E
:10044000002605E00121284600F04EF9701CC6B2D6
:10045000802EF7DB601CC4B2082CE3DB70BD10B546
:1004600000218D2000F040F90021142000F03CF91B
:100470000021AF2000F038F910BD0000F0B514469F
:1004800000267F2801DC3F2900DDF0BD0B46CF1799
:1004900001EB5777C7F3C702CF1701EB5777FF1070
:1004A000A1EBC707FDB20123AB40DEB24CB10A4B52
:1004B00003EBC2131B5C3343074F07EBC2173B54DC
:1004C00008E0054B03EBC2131B5CB343024F07EB81
:1004D000C2173B5400BFD8E72C0D002038B50546A5
:1004E0000C46634805600121082000F027F94FF40D
:1004F0000050ADF8000010208DF8030003208DF8A7
:10050000020069465B48FFF7E0FE01205A49086097
:100510000121082000F012F94FF48040ADF80000EE
:1005200010208DF8030003208DF802006946514821
:10053000FFF7CBFE01205149C1F8B8010121082085
:1005400000F0FCF84FF48050ADF8000010208DF85A
:10055000030003208DF8020069464648FFF7B5FE08
:1005600001204549091F0860C82000F0CDFA00208D
:100570004249C1F8B001C82000F0C6FA01203E4946
:10058000091F08600021AE2000F0AEF800210846E7
:1005900000F0AAF80021102000F0A6F80021402069
:1005A00000F0A2F80021812000F09EF80021CF2069
:1005B00000F09AF80021A12000F096F80021C82050
:1005C00000F092F80021A62000F08EF80021A8206B
:1005D00000F08AF800213F2000F086F80021D320A7
:1005E00000F082F80021084600F07EF80021D520B6
:1005F00000F07AF80021802000F076F80021D92060
:1006000000F072F80021F12000F06EF80021DA20ED
:1006100000F06AF80021122000F066F80021DB20CB
:1006200000F062F80021402000F05EF80021202058
:1006300000F05AF80021022000F056F800218D2029
:1006400000F052F80021142000F04EF80021A42000
:1006500000F04AF80021A62000F046F80021AF2063
:1006600000F042F8FFF7FBFE2046FFF7D5FE38BD4D
:10067000140D0020000C0140B48121420080214271
:1006800070B5002412E02146002000F015F8002586
:1006900008E0084901EBC411485D012100F024F88D
:1006A000681CC5B27F2DF4DB601CC4B2072CEADBEA
:1006B00070BD00002C0D002070B504460D4605F1FC
:1006C000B001C8B2002100F00FF8102141EA141067
:1006D000002100F009F804F00F0141F001000021B1
:1006E00000F002F870BD000070B504460D46002011
:1006F000064908600648C0F8B4512146054800681C
:1007000000F0A6F801200149086070BDB8812142BF
:1007100000802142140D00207047000029B1064AD4
:10072000D2690243044BDA6104E0034AD26982438E
:10073000014BDA61704700000010024029B1064AFF
:1007400092690243044B9A6104E0034A926982432E
:10075000014B9A61704700000010024021B10288ED
:1007600042F04002028004E002884FF6BF731A4054
:10077000028070470246002013890B400BB1012014
:1007800000E00020704701468889704781817047EA
:1007900038B5044618208DF8030003208DF80200B8
:1007A0001848844213D101218014FFF7C7FF0121AB
:1007B0000420FFF7C3FFE020ADF8000069461248AF
:1007C000FFF783FDE0211048FFF70AFE18E00F480D
:1007D000844213D101210014FFF7A0FF012108205A
:1007E000FFF7ACFFA000ADF8000069460848FFF72E
:1007F0006CFDA1000648FFF7F3FD01E0002038BDC5
:100800000120FCE7003001400008014000380040B2
:10081000000C014010B50022028802F441520B88FE
:100820004C8823438C882343CC8823430C8923435F
:100830004C8923438C892343CC8923431A43028068
:10084000838B4FF2FF74234083830B8A038210BD96
:1008500070B505460E46002405E0601CC4B2C82CE5
:1008600001DD002070BD02212846FFF783FF00282C
:10087000F3D031462846FFF789FF002405E0601CCD
:10088000C4B2C82C01DD0020ECE701212846FFF7A7
:1008900071FF0028F3D02846FFF775FFC0B2E1E7EB
:1008A00010B504462046FFF773FF08B9002010BDBD
:1008B00004492046FFF7AEFF01212046FFF74EFF17
:1008C0000120F4E7180D0020704710B500F002F881
:1008D00010BD00000CB50020019000903348006866
:1008E00040F480303149086000BF3048006800F4AF
:1008F000003000900198401C0190009818B90198B0
:10090000B0F5A06FF1D12948006800F4003010B1B3
:100910000120009001E0002000900098012843D1C0
:100920002348006840F0100021490860084600682C
:1009300020F0030008600846006840F002000860EC
:100940001A484068194948600846406848600846A7
:10095000406840F4806048600846406820F47C109D
:1009600048600846406840F4E8104860084600685F
:1009700040F08070086000BF0C48006800F0007014
:100980000028F9D00948406820F003000749486072
:100990000846406840F00200486000BF03484068D5
:1009A00000F00C000828F9D10CBD00000010024036
:1009B00000200240042808D14FF0E021096941F0ED
:1009C00004014FF0E022116107E04FF0E0210969D6
:1009D00021F004014FF0E0221161704770470000E0
:1009E00010B51348006840F001001149086008463E
:1009F0004068104908400E494860084600680E49A2
:100A000008400B4908600846006820F48020086010
:100A10000846406820F4FE0048604FF41F008860DC
:100A2000FFF753FF4FF000600449086010BD00005D
:100A3000001002400000FFF8FFFFF6FE08ED00E0A6
:100A400010B540F22551044800F008F818B10248EA
:100A500000F02EF8C4B210BD0038014070B5024657
:100A6000002400230025002040F66A16B14200D180
:100A700000BFC1F3421501F01F03012606FA03F37C
:100A8000012D02D19689334006E0022D02D1168A4B
:100A9000334001E0968A33400C12012606FA04F432
:100AA0001688344013B10CB1012000E0002070BD65
:100AB00001468888C0F30800704700BFFEE700BF0A
:100AC0007047000010B56FF00400FFF773FF0A488D
:100AD00000680A49B0FBF1F009490870084600783F
:100AE00000EB4001C1EBC0104FF6FF7101EAC000FE
:100AF0000449088010BD00000400002000127A00A4
:100B000000000020020000200146114A12884A43DA
:100B10004FF0E0235A6100229A611A46126942F0AE
:100B200001021A6100BF4FF0E022106900F00102DB
:100B30001AB100F48032002AF5D04FF0E022126999
:100B400022F001024FF0E0231A6100229A617047FF
:100B50000200002000240025FFF7B4FF0D48FFF736
:100B60009FFE00210B48FFF7B9FC12E000240EE0C5
:100B7000002509E0E9B2E0B20122FFF77FFCFFF7B0
:100B80007FFDFFF735FCAD1C3F2DF3DDA41C7F2C52
:100B9000EEDDEBE700300140B80B0008000000205C
:100BA0002C0D00006C010008600F00082C0D0020C7
:100BB000640A0000D00100082200015005A24A0486
:100BC0000001300D01020304060708090000FE922F
:100BD000010313FE00013004080601070314080F87
:100BE00020000C148445F62C4004FF5454FF0441AB
:100BF00012003900071509050101050920500400FC
:100C0000FE220101128330068040300F02010004F1
:100C10001242827FA010090889EE980004FF240187
:100C2000011283001010020100FF000B884F2909F8
:100C300009294F8808E1501003050911FF118905A2
:100C4000C300E000F000F87700083A4428FF11AA3A
:100C5000440001500B83013844829292740183CB8B
:100C600020087C44FF017D7D7D04410554047D0105
:100C7000FF8D910275A1023B017E81419149F201F4
:100C800001011BC230083F3F0303F313110110069B
:100C900001F1116181402005816111F1473341412A
:100CA00007200401C12120A321C1143119313704C7
:100CB0000736D33303033F3F426006E0E000007F86
:100CC000A815FD4005010618060A1008000040405E
:100CD0007F4040A410041F204001A3201F143300B4
:100CE000600E6004300C03460534C210040707068A
:100CF0000170090404048444444484078005048486
:100D0000C4041501120A71112140073D0707C91CCF
:100D100008000010181412114A032C041010108738
:100D2000032804101F10FA600C1012120D00001896
:100D300000000D120A51295130015E01528001015B
:100D40003B4514047F030CA915DE1C053854545888
:100D50002503080A2004047800003C40407C200061
:100D6000092CFFAAAAAA280800FF681006264949EC
:100D70004932100C0671020408107F00049D010422
:100D80000D9D00041D9C0543F80801240500F8187A
:100D900060E82404806018235720202923E01021D4
:100DA000A310E0146D9905111908043C88681863B4
:100DB0000D15FF037DEA039DFF0371144DFF031D15
:100DC00006043D2E040942E91C0640202020C04AAA
:100DD00004110721EA3E40520452600E8118712925
:100DE00051070D4769031C060C0A0A090C00044E42
:100DF0000887072F080FC80610060C0809090E07F8
:100E00001D180430050909090F0A512951070DFF62
:100E100000040D220004DDCF040216F0010D26EAC5
:100E20000401304613C0C02F2007FEFEFFFFFF3F26
:100E30000102110F013119080A13FFFFFEFEFEF037
:100E4000F0C0C05B0134461004F0F8F8321005FF22
:100E5000FF07077B50043E3EFE0113F8F8201152B5
:100E600053F8F81130093E3E3E3F3F0707072DDF9C
:100E7000F8F826048146BD530872C001AD9608A15A
:100E800046314F2006C0C0E0E0E0B953DFFF0172F9
:100E90001F0111AE217222DF1B112633E0C068ED65
:100EA0000806711452F8CFA148A11152FEBB41327D
:100EB00062F86D11D9D0050707E7E33E61353006CA
:100EC000F8F8E3E3E72340041F1F7F119DEA047253
:100ED000F8463E1F85088200BD01170F414621FCE0
:100EE000590D0216FF0172EFCC695DD501227F9288
:100EF0006FE0E08B07000612E0E0FCFCFC4A7004A7
:100F0000FCFCE026156F1805FFFF7F031200061496
:100F10007F7F7C7C7C3135EA7004F3F3F340BC0CBA
:100F2000FC7C7C7F7F7F0F0F030303400B22034970
:100F3000214B91357137D10F31411101A1433D2E24
:100F40000A021B0F010D23AB06012146AD53057D9F
:100F5000E6096E04200B4C04023000AB09000000CF
:0400000508000215D8
:00000001FF
